{
  "address": "0x2d4aD12C9273df33c3c2B985eDA0F9B5fbCC96e3",
  "abi": [
    {
      "inputs": [
        {
          "internalType": "address",
          "name": "collectionAddress",
          "type": "address"
        },
        {
          "internalType": "address",
          "name": "polygonMinter",
          "type": "address"
        },
        {
          "internalType": "address",
          "name": "_router",
          "type": "address"
        },
        {
          "internalType": "address",
          "name": "_link",
          "type": "address"
        }
      ],
      "stateMutability": "nonpayable",
      "type": "constructor"
    },
    {
      "anonymous": false,
      "inputs": [
        {
          "indexed": true,
          "internalType": "uint256",
          "name": "eventId",
          "type": "uint256"
        },
        {
          "indexed": false,
          "internalType": "string",
          "name": "name",
          "type": "string"
        },
        {
          "indexed": false,
          "internalType": "uint256",
          "name": "date",
          "type": "uint256"
        },
        {
          "indexed": false,
          "internalType": "uint256",
          "name": "ticketSupply",
          "type": "uint256"
        },
        {
          "indexed": false,
          "internalType": "string",
          "name": "description",
          "type": "string"
        }
      ],
      "name": "EventCreated",
      "type": "event"
    },
    {
      "anonymous": false,
      "inputs": [
        {
          "indexed": true,
          "internalType": "address",
          "name": "previousOwner",
          "type": "address"
        },
        {
          "indexed": true,
          "internalType": "address",
          "name": "newOwner",
          "type": "address"
        }
      ],
      "name": "OwnershipTransferred",
      "type": "event"
    },
    {
      "anonymous": false,
      "inputs": [
        {
          "indexed": true,
          "internalType": "uint256",
          "name": "eventId",
          "type": "uint256"
        },
        {
          "indexed": true,
          "internalType": "address",
          "name": "user",
          "type": "address"
        },
        {
          "indexed": false,
          "internalType": "uint256",
          "name": "tokenId",
          "type": "uint256"
        },
        {
          "indexed": false,
          "internalType": "bool",
          "name": "isPolygon",
          "type": "bool"
        }
      ],
      "name": "TicketClaimed",
      "type": "event"
    },
    {
      "inputs": [
        {
          "internalType": "uint256",
          "name": "eventId",
          "type": "uint256"
        },
        {
          "internalType": "bool",
          "name": "isPolygon",
          "type": "bool"
        }
      ],
      "name": "claimTicket",
      "outputs": [],
      "stateMutability": "nonpayable",
      "type": "function"
    },
    {
      "inputs": [],
      "name": "collection",
      "outputs": [
        {
          "internalType": "contract Collection",
          "name": "",
          "type": "address"
        }
      ],
      "stateMutability": "view",
      "type": "function"
    },
    {
      "inputs": [
        {
          "internalType": "string",
          "name": "name",
          "type": "string"
        },
        {
          "internalType": "uint256",
          "name": "date",
          "type": "uint256"
        },
        {
          "internalType": "uint256",
          "name": "ticketSupply",
          "type": "uint256"
        },
        {
          "internalType": "string",
          "name": "description",
          "type": "string"
        },
        {
          "internalType": "string",
          "name": "tokenUri",
          "type": "string"
        },
        {
          "internalType": "string",
          "name": "imageUrl",
          "type": "string"
        }
      ],
      "name": "createEvent",
      "outputs": [],
      "stateMutability": "nonpayable",
      "type": "function"
    },
    {
      "inputs": [],
      "name": "destinationMinter",
      "outputs": [
        {
          "internalType": "address",
          "name": "",
          "type": "address"
        }
      ],
      "stateMutability": "view",
      "type": "function"
    },
    {
      "inputs": [
        {
          "internalType": "uint256",
          "name": "",
          "type": "uint256"
        }
      ],
      "name": "events",
      "outputs": [
        {
          "internalType": "string",
          "name": "name",
          "type": "string"
        },
        {
          "internalType": "uint256",
          "name": "date",
          "type": "uint256"
        },
        {
          "internalType": "uint256",
          "name": "ticketSupply",
          "type": "uint256"
        },
        {
          "internalType": "uint256",
          "name": "ticketsMinted",
          "type": "uint256"
        },
        {
          "internalType": "bool",
          "name": "exists",
          "type": "bool"
        },
        {
          "internalType": "string",
          "name": "description",
          "type": "string"
        },
        {
          "internalType": "string",
          "name": "tokenUri",
          "type": "string"
        },
        {
          "internalType": "string",
          "name": "imageUrl",
          "type": "string"
        },
        {
          "internalType": "uint256",
          "name": "tokenIdStartAt",
          "type": "uint256"
        }
      ],
      "stateMutability": "view",
      "type": "function"
    },
    {
      "inputs": [
        {
          "internalType": "uint256",
          "name": "eventId",
          "type": "uint256"
        }
      ],
      "name": "getEvent",
      "outputs": [
        {
          "components": [
            {
              "internalType": "string",
              "name": "name",
              "type": "string"
            },
            {
              "internalType": "uint256",
              "name": "date",
              "type": "uint256"
            },
            {
              "internalType": "uint256",
              "name": "ticketSupply",
              "type": "uint256"
            },
            {
              "internalType": "uint256",
              "name": "ticketsMinted",
              "type": "uint256"
            },
            {
              "internalType": "bool",
              "name": "exists",
              "type": "bool"
            },
            {
              "internalType": "string",
              "name": "description",
              "type": "string"
            },
            {
              "internalType": "string",
              "name": "tokenUri",
              "type": "string"
            },
            {
              "internalType": "string",
              "name": "imageUrl",
              "type": "string"
            },
            {
              "internalType": "uint256",
              "name": "tokenIdStartAt",
              "type": "uint256"
            }
          ],
          "internalType": "struct Minter.Event",
          "name": "",
          "type": "tuple"
        }
      ],
      "stateMutability": "view",
      "type": "function"
    },
    {
      "inputs": [],
      "name": "getTotalEvents",
      "outputs": [
        {
          "internalType": "uint256",
          "name": "",
          "type": "uint256"
        }
      ],
      "stateMutability": "view",
      "type": "function"
    },
    {
      "inputs": [
        {
          "internalType": "address",
          "name": "walletOwner",
          "type": "address"
        }
      ],
      "name": "getUserTickets",
      "outputs": [
        {
          "components": [
            {
              "internalType": "uint256",
              "name": "tokenId",
              "type": "uint256"
            },
            {
              "internalType": "uint256",
              "name": "eventId",
              "type": "uint256"
            }
          ],
          "internalType": "struct Minter.TicketInfo[]",
          "name": "",
          "type": "tuple[]"
        }
      ],
      "stateMutability": "view",
      "type": "function"
    },
    {
      "inputs": [],
      "name": "nextEventId",
      "outputs": [
        {
          "internalType": "uint256",
          "name": "",
          "type": "uint256"
        }
      ],
      "stateMutability": "view",
      "type": "function"
    },
    {
      "inputs": [],
      "name": "owner",
      "outputs": [
        {
          "internalType": "address",
          "name": "",
          "type": "address"
        }
      ],
      "stateMutability": "view",
      "type": "function"
    },
    {
      "inputs": [],
      "name": "renounceOwnership",
      "outputs": [],
      "stateMutability": "nonpayable",
      "type": "function"
    },
    {
      "inputs": [
        {
          "internalType": "address",
          "name": "newOwner",
          "type": "address"
        }
      ],
      "name": "transferOwnership",
      "outputs": [],
      "stateMutability": "nonpayable",
      "type": "function"
    }
  ],
  "transactionHash": "0xcb61731975ee68d9dce697d4c26bcd266fb110a716db4a7f46162090ff19045d",
  "args": [
    "0x8D6577B56045778a5A85147fCDD65afeF89172FA",
    "0xb3adCa7a60F08D62817826b1D90AeC7FBBD7c80c",
    "0x0BF3dE8c5D3e8A2B34D2BEeB17ABfCeBaf363A59",
    "0x779877A7B0D9E8603169DdbD7836e478b4624789"
  ],
  "numDeployments": 6,
  "solcInputHash": "0965fa92b4d00828a42c88fa6de7cf2e",
  "bytecode": "0x60806040523480156200001157600080fd5b5060405162001b8638038062001b8683398101604081905262000034916200016d565b6200003f3362000100565b600380546001600160a01b038681166001600160a01b031992831617909255600480548684169083161781556005805486851690841681179091556006805494861694909316841790925560405163095ea7b360e01b815290810191909152600019602482015263095ea7b3906044016020604051808303816000875af1158015620000cf573d6000803e3d6000fd5b505050506040513d601f19601f82011682018060405250810190620000f59190620001ca565b5050505050620001f5565b600080546001600160a01b038381166001600160a01b0319831681178455604051919092169283917f8be0079c531659141344cd1fd0a4f28419497f9722a3daafe3b4186f6b6457e09190a35050565b80516001600160a01b03811681146200016857600080fd5b919050565b600080600080608085870312156200018457600080fd5b6200018f8562000150565b93506200019f6020860162000150565b9250620001af6040860162000150565b9150620001bf6060860162000150565b905092959194509250565b600060208284031215620001dd57600080fd5b81518015158114620001ee57600080fd5b9392505050565b61198180620002056000396000f3fe608060405234801561001057600080fd5b50600436106100b45760003560e01c8063715018a611610071578063715018a61461017c5780637de1e536146101845780638da5cb5b146101975780639f9d903a146101a8578063c4b796f1146101b1578063f2fde38b146101c457600080fd5b80630484a22f146100b95780630b791430146100e25780631a8af8d51461010a57806332d9b27214610135578063616069401461014a5780636d1884e01461015c575b600080fd5b6100cc6100c73660046111e4565b6101d7565b6040516100d99190611208565b60405180910390f35b6100f56100f0366004611257565b6104b0565b6040516100d9999897969594939291906112c0565b60045461011d906001600160a01b031681565b6040516001600160a01b0390911681526020016100d9565b610148610143366004611407565b61071e565b005b6002545b6040519081526020016100d9565b61016f61016a366004611257565b6109b1565b6040516100d991906114c6565b610148610ca5565b60035461011d906001600160a01b031681565b6000546001600160a01b031661011d565b61014e60025481565b6101486101bf366004611585565b610cb9565b6101486101d23660046111e4565b610ec7565b60606000600360009054906101000a90046001600160a01b03166001600160a01b031663459dcbc36040518163ffffffff1660e01b8152600401602060405180830381865afa15801561022e573d6000803e3d6000fd5b505050506040513d601f19601f8201168201806040525081019061025291906115ba565b905060008167ffffffffffffffff81111561026f5761026f611342565b604051908082528060200260200182016040528015610298578160200160208202803683370190505b5090506000805b83811015610362576003546040516331a9108f60e11b8152600481018390526001600160a01b03888116921690636352211e90602401602060405180830381865afa1580156102f2573d6000803e3d6000fd5b505050506040513d601f19601f8201168201806040525081019061031691906115d3565b6001600160a01b0316036103505780838381518110610337576103376115f0565b60209081029190910101528161034c8161161c565b9250505b8061035a8161161c565b91505061029f565b5060008167ffffffffffffffff81111561037e5761037e611342565b6040519080825280602002602001820160405280156103c357816020015b604080518082019091526000808252602082015281526020019060019003908161039c5790505b5090506000805b838110156104a45760008582815181106103e6576103e66115f0565b6020026020010151905060005b60025481101561048f5760008181526001602052604090206008810154831080159061043157508060020154816008015461042e9190611635565b83105b1561047c5760405180604001604052808481526020018381525086868151811061045d5761045d6115f0565b602002602001018190525084806104739061161c565b9550505061048f565b50806104878161161c565b9150506103f3565b5050808061049c9061161c565b9150506103ca565b50909695505050505050565b6001602052600090815260409020805481906104cb9061164e565b80601f01602080910402602001604051908101604052809291908181526020018280546104f79061164e565b80156105445780601f1061051957610100808354040283529160200191610544565b820191906000526020600020905b81548152906001019060200180831161052757829003601f168201915b50505060018401546002850154600386015460048701546005880180549798949793965091945060ff1692916105799061164e565b80601f01602080910402602001604051908101604052809291908181526020018280546105a59061164e565b80156105f25780601f106105c7576101008083540402835291602001916105f2565b820191906000526020600020905b8154815290600101906020018083116105d557829003601f168201915b5050505050908060060180546106079061164e565b80601f01602080910402602001604051908101604052809291908181526020018280546106339061164e565b80156106805780601f1061065557610100808354040283529160200191610680565b820191906000526020600020905b81548152906001019060200180831161066357829003601f168201915b5050505050908060070180546106959061164e565b80601f01602080910402602001604051908101604052809291908181526020018280546106c19061164e565b801561070e5780601f106106e35761010080835404028352916020019161070e565b820191906000526020600020905b8154815290600101906020018083116106f157829003601f168201915b5050505050908060080154905089565b610726610f40565b6000841161078b5760405162461bcd60e51b815260206004820152602760248201527f5469636b657420737570706c79206d7573742062652067726561746572207468604482015266616e207a65726f60c81b60648201526084015b60405180910390fd5b6002546003546040805163459dcbc360e01b815290516000926001600160a01b03169163459dcbc39160048083019260209291908290030181865afa1580156107d8573d6000803e3d6000fd5b505050506040513d601f19601f820116820180604052508101906107fc91906115ba565b9050604051806101200160405280898152602001888152602001878152602001600081526020016001151581526020018681526020018581526020018481526020018281525060016000848152602001908152602001600020600082015181600001908161086a91906116d7565b50602082015160018201556040820151600282015560608201516003820155608082015160048201805460ff191691151591909117905560a082015160058201906108b590826116d7565b5060c082015160068201906108ca90826116d7565b5060e082015160078201906108df90826116d7565b506101009190910151600890910155600280549060006108fe8361161c565b90915550506003546040516350049cfb60e11b81526001600160a01b039091169063a00939f6906109379030908a908990600401611797565b600060405180830381600087803b15801561095157600080fd5b505af1158015610965573d6000803e3d6000fd5b50505050817fbb3e1bbacd2f8f590c705be970ffc43e3527b1485e086f2fe4096207ec6dbc5b8989898960405161099f94939291906117c7565b60405180910390a25050505050505050565b610a0260405180610120016040528060608152602001600081526020016000815260200160008152602001600015158152602001606081526020016060815260200160608152602001600081525090565b6000828152600160205260409081902081516101208101909252805482908290610a2b9061164e565b80601f0160208091040260200160405190810160405280929190818152602001828054610a579061164e565b8015610aa45780601f10610a7957610100808354040283529160200191610aa4565b820191906000526020600020905b815481529060010190602001808311610a8757829003601f168201915b5050509183525050600182015460208201526002820154604082015260038201546060820152600482015460ff161515608082015260058201805460a090920191610aee9061164e565b80601f0160208091040260200160405190810160405280929190818152602001828054610b1a9061164e565b8015610b675780601f10610b3c57610100808354040283529160200191610b67565b820191906000526020600020905b815481529060010190602001808311610b4a57829003601f168201915b50505050508152602001600682018054610b809061164e565b80601f0160208091040260200160405190810160405280929190818152602001828054610bac9061164e565b8015610bf95780601f10610bce57610100808354040283529160200191610bf9565b820191906000526020600020905b815481529060010190602001808311610bdc57829003601f168201915b50505050508152602001600782018054610c129061164e565b80601f0160208091040260200160405190810160405280929190818152602001828054610c3e9061164e565b8015610c8b5780601f10610c6057610100808354040283529160200191610c8b565b820191906000526020600020905b815481529060010190602001808311610c6e57829003601f168201915b505050505081526020016008820154815250509050919050565b610cad610f40565b610cb76000610f9a565b565b6000828152600160205260409020600481015460ff16610d125760405162461bcd60e51b8152602060048201526014602482015273115d995b9d08191bd95cc81b9bdd08195e1a5cdd60621b6044820152606401610782565b8060020154816003015410610d695760405162461bcd60e51b815260206004820152601960248201527f4e6f206d6f7265207469636b65747320617661696c61626c65000000000000006044820152606401610782565b600081600301548260080154610d7f9190611635565b6003830180549192506000610d938361161c565b91905055508215610e1857600454610db59082906001600160a01b0316610fea565b600354604051630852cd8d60e31b8152600481018390526001600160a01b03909116906342966c6890602401600060405180830381600087803b158015610dfb57600080fd5b505af1158015610e0f573d6000803e3d6000fd5b50505050610e83565b6003546040516323b872dd60e01b8152306004820152336024820152604481018390526001600160a01b03909116906323b872dd90606401600060405180830381600087803b158015610e6a57600080fd5b505af1158015610e7e573d6000803e3d6000fd5b505050505b604080518281528415156020820152339186917f26f00c43fec9a8a7121c65140393d112fc64bafa22c6a37247a3f38ddb280fdf910160405180910390a350505050565b610ecf610f40565b6001600160a01b038116610f345760405162461bcd60e51b815260206004820152602660248201527f4f776e61626c653a206e6577206f776e657220697320746865207a65726f206160448201526564647265737360d01b6064820152608401610782565b610f3d81610f9a565b50565b6000546001600160a01b03163314610cb75760405162461bcd60e51b815260206004820181905260248201527f4f776e61626c653a2063616c6c6572206973206e6f7420746865206f776e65726044820152606401610782565b600080546001600160a01b038381166001600160a01b0319831681178455604051919092169283917f8be0079c531659141344cd1fd0a4f28419497f9722a3daafe3b4186f6b6457e09190a35050565b6040805160a081019091526001600160a01b03821660c08201526000908060e0810160408051808303601f19018152918152908252600354905163c87b56dd60e01b815260048101879052602090920191339187916001600160a01b039091169063c87b56dd90602401600060405180830381865afa158015611071573d6000803e3d6000fd5b505050506040513d6000823e601f3d908101601f191682016040526110999190810190611803565b6040516024016110ab93929190611797565b60408051601f19818403018152919052602080820180516001600160e01b03166334ff261960e21b17905290825201600060405190808252806020026020018201604052801561112157816020015b60408051808201909152600080825260208201528152602001906001900390816110fa5790505b5081526006546001600160a01b0390811660208084019190915260408051918201815260008083529381019190915260055490516396f4e9f960e01b815293945091929116906396f4e9f9906111859067e1f4423f1bf587cd908690600401611871565b6020604051808303816000875af11580156111a4573d6000803e3d6000fd5b505050506040513d601f19601f820116820180604052508101906111c891906115ba565b5050505050565b6001600160a01b0381168114610f3d57600080fd5b6000602082840312156111f657600080fd5b8135611201816111cf565b9392505050565b602080825282518282018190526000919060409081850190868401855b8281101561124a57815180518552860151868501529284019290850190600101611225565b5091979650505050505050565b60006020828403121561126957600080fd5b5035919050565b60005b8381101561128b578181015183820152602001611273565b50506000910152565b600081518084526112ac816020860160208601611270565b601f01601f19169290920160200192915050565b60006101208083526112d48184018d611294565b90508a6020840152896040840152886060840152871515608084015282810360a08401526113028188611294565b905082810360c08401526113168187611294565b905082810360e084015261132a8186611294565b915050826101008301529a9950505050505050505050565b634e487b7160e01b600052604160045260246000fd5b604051601f8201601f1916810167ffffffffffffffff8111828210171561138157611381611342565b604052919050565b600067ffffffffffffffff8211156113a3576113a3611342565b50601f01601f191660200190565b600082601f8301126113c257600080fd5b81356113d56113d082611389565b611358565b8181528460208386010111156113ea57600080fd5b816020850160208301376000918101602001919091529392505050565b60008060008060008060c0878903121561142057600080fd5b863567ffffffffffffffff8082111561143857600080fd5b6114448a838b016113b1565b97506020890135965060408901359550606089013591508082111561146857600080fd5b6114748a838b016113b1565b9450608089013591508082111561148a57600080fd5b6114968a838b016113b1565b935060a08901359150808211156114ac57600080fd5b506114b989828a016113b1565b9150509295509295509295565b60208152600082516101208060208501526114e5610140850183611294565b9150602085015160408501526040850151606085015260608501516080850152608085015161151860a086018215159052565b5060a0850151601f19808685030160c08701526115358483611294565b935060c08701519150808685030160e08701526115528483611294565b935060e087015191506101008187860301818801526115718584611294565b970151959092019490945250929392505050565b6000806040838503121561159857600080fd5b82359150602083013580151581146115af57600080fd5b809150509250929050565b6000602082840312156115cc57600080fd5b5051919050565b6000602082840312156115e557600080fd5b8151611201816111cf565b634e487b7160e01b600052603260045260246000fd5b634e487b7160e01b600052601160045260246000fd5b60006001820161162e5761162e611606565b5060010190565b8082018082111561164857611648611606565b92915050565b600181811c9082168061166257607f821691505b60208210810361168257634e487b7160e01b600052602260045260246000fd5b50919050565b601f8211156116d257600081815260208120601f850160051c810160208610156116af5750805b601f850160051c820191505b818110156116ce578281556001016116bb565b5050505b505050565b815167ffffffffffffffff8111156116f1576116f1611342565b611705816116ff845461164e565b84611688565b602080601f83116001811461173a57600084156117225750858301515b600019600386901b1c1916600185901b1785556116ce565b600085815260208120601f198616915b828110156117695788860151825594840194600190910190840161174a565b50858210156117875787850151600019600388901b60f8161c191681555b5050505050600190811b01905550565b60018060a01b03841681528260208201526060604082015260006117be6060830184611294565b95945050505050565b6080815260006117da6080830187611294565b85602084015284604084015282810360608401526117f88185611294565b979650505050505050565b60006020828403121561181557600080fd5b815167ffffffffffffffff81111561182c57600080fd5b8201601f8101841361183d57600080fd5b805161184b6113d082611389565b81815285602083850101111561186057600080fd5b6117be826020830160208601611270565b6000604067ffffffffffffffff8516835260208181850152845160a08386015261189e60e0860182611294565b905081860151603f19808784030160608801526118bb8383611294565b88860151888203830160808a01528051808352908601945060009350908501905b8084101561190e57845180516001600160a01b03168352860151868301529385019360019390930192908601906118dc565b5060608901516001600160a01b031660a08901526080890151888203830160c08a0152955061193d8187611294565b9a995050505050505050505056fea2646970667358221220922642e173f425c226dc00fe2d00fabb984f9e11f893bd5583f972204d06924a64736f6c63430008110033",
  "devdoc": {
    "kind": "dev",
    "methods": {
      "owner()": {
        "details": "Returns the address of the current owner."
      },
      "renounceOwnership()": {
        "details": "Leaves the contract without owner. It will not be possible to call `onlyOwner` functions anymore. Can only be called by the current owner. NOTE: Renouncing ownership will leave the contract without an owner, thereby removing any functionality that is only available to the owner."
      },
      "transferOwnership(address)": {
        "details": "Transfers ownership of the contract to a new account (`newOwner`). Can only be called by the current owner."
      }
    },
    "version": 1
  },
  "userdoc": {
    "kind": "user",
    "methods": {},
    "version": 1
  },
  "storageLayout": {
    "storage": [
      {
        "astId": 209,
        "contract": "contracts/Minter.sol:Minter",
        "label": "_owner",
        "offset": 0,
        "slot": "0",
        "type": "t_address"
      },
      {
        "astId": 3138,
        "contract": "contracts/Minter.sol:Minter",
        "label": "events",
        "offset": 0,
        "slot": "1",
        "type": "t_mapping(t_uint256,t_struct(Event)3128_storage)"
      },
      {
        "astId": 3140,
        "contract": "contracts/Minter.sol:Minter",
        "label": "nextEventId",
        "offset": 0,
        "slot": "2",
        "type": "t_uint256"
      },
      {
        "astId": 3143,
        "contract": "contracts/Minter.sol:Minter",
        "label": "collection",
        "offset": 0,
        "slot": "3",
        "type": "t_contract(Collection)3097"
      },
      {
        "astId": 3145,
        "contract": "contracts/Minter.sol:Minter",
        "label": "destinationMinter",
        "offset": 0,
        "slot": "4",
        "type": "t_address"
      },
      {
        "astId": 3148,
        "contract": "contracts/Minter.sol:Minter",
        "label": "s_router",
        "offset": 0,
        "slot": "5",
        "type": "t_contract(IRouterClient)51"
      },
      {
        "astId": 3151,
        "contract": "contracts/Minter.sol:Minter",
        "label": "s_linkToken",
        "offset": 0,
        "slot": "6",
        "type": "t_contract(LinkTokenInterface)201"
      }
    ],
    "types": {
      "t_address": {
        "encoding": "inplace",
        "label": "address",
        "numberOfBytes": "20"
      },
      "t_bool": {
        "encoding": "inplace",
        "label": "bool",
        "numberOfBytes": "1"
      },
      "t_contract(Collection)3097": {
        "encoding": "inplace",
        "label": "contract Collection",
        "numberOfBytes": "20"
      },
      "t_contract(IRouterClient)51": {
        "encoding": "inplace",
        "label": "contract IRouterClient",
        "numberOfBytes": "20"
      },
      "t_contract(LinkTokenInterface)201": {
        "encoding": "inplace",
        "label": "contract LinkTokenInterface",
        "numberOfBytes": "20"
      },
      "t_mapping(t_uint256,t_struct(Event)3128_storage)": {
        "encoding": "mapping",
        "key": "t_uint256",
        "label": "mapping(uint256 => struct Minter.Event)",
        "numberOfBytes": "32",
        "value": "t_struct(Event)3128_storage"
      },
      "t_string_storage": {
        "encoding": "bytes",
        "label": "string",
        "numberOfBytes": "32"
      },
      "t_struct(Event)3128_storage": {
        "encoding": "inplace",
        "label": "struct Minter.Event",
        "members": [
          {
            "astId": 3111,
            "contract": "contracts/Minter.sol:Minter",
            "label": "name",
            "offset": 0,
            "slot": "0",
            "type": "t_string_storage"
          },
          {
            "astId": 3113,
            "contract": "contracts/Minter.sol:Minter",
            "label": "date",
            "offset": 0,
            "slot": "1",
            "type": "t_uint256"
          },
          {
            "astId": 3115,
            "contract": "contracts/Minter.sol:Minter",
            "label": "ticketSupply",
            "offset": 0,
            "slot": "2",
            "type": "t_uint256"
          },
          {
            "astId": 3117,
            "contract": "contracts/Minter.sol:Minter",
            "label": "ticketsMinted",
            "offset": 0,
            "slot": "3",
            "type": "t_uint256"
          },
          {
            "astId": 3119,
            "contract": "contracts/Minter.sol:Minter",
            "label": "exists",
            "offset": 0,
            "slot": "4",
            "type": "t_bool"
          },
          {
            "astId": 3121,
            "contract": "contracts/Minter.sol:Minter",
            "label": "description",
            "offset": 0,
            "slot": "5",
            "type": "t_string_storage"
          },
          {
            "astId": 3123,
            "contract": "contracts/Minter.sol:Minter",
            "label": "tokenUri",
            "offset": 0,
            "slot": "6",
            "type": "t_string_storage"
          },
          {
            "astId": 3125,
            "contract": "contracts/Minter.sol:Minter",
            "label": "imageUrl",
            "offset": 0,
            "slot": "7",
            "type": "t_string_storage"
          },
          {
            "astId": 3127,
            "contract": "contracts/Minter.sol:Minter",
            "label": "tokenIdStartAt",
            "offset": 0,
            "slot": "8",
            "type": "t_uint256"
          }
        ],
        "numberOfBytes": "288"
      },
      "t_uint256": {
        "encoding": "inplace",
        "label": "uint256",
        "numberOfBytes": "32"
      }
    }
  }
}