{
  "address": "0x2751228A94E0276947c9e13AD885aa95aB776CEb",
  "abi": [
    {
      "inputs": [
        {
          "internalType": "address",
          "name": "collectionAddress",
          "type": "address"
        }
      ],
      "stateMutability": "nonpayable",
      "type": "constructor"
    },
    {
      "anonymous": false,
      "inputs": [
        {
          "indexed": true,
          "internalType": "uint256",
          "name": "eventId",
          "type": "uint256"
        },
        {
          "indexed": false,
          "internalType": "string",
          "name": "name",
          "type": "string"
        },
        {
          "indexed": false,
          "internalType": "uint256",
          "name": "date",
          "type": "uint256"
        },
        {
          "indexed": false,
          "internalType": "uint256",
          "name": "ticketSupply",
          "type": "uint256"
        },
        {
          "indexed": false,
          "internalType": "string",
          "name": "description",
          "type": "string"
        }
      ],
      "name": "EventCreated",
      "type": "event"
    },
    {
      "anonymous": false,
      "inputs": [
        {
          "indexed": true,
          "internalType": "address",
          "name": "previousOwner",
          "type": "address"
        },
        {
          "indexed": true,
          "internalType": "address",
          "name": "newOwner",
          "type": "address"
        }
      ],
      "name": "OwnershipTransferred",
      "type": "event"
    },
    {
      "anonymous": false,
      "inputs": [
        {
          "indexed": true,
          "internalType": "uint256",
          "name": "eventId",
          "type": "uint256"
        },
        {
          "indexed": true,
          "internalType": "address",
          "name": "user",
          "type": "address"
        },
        {
          "indexed": false,
          "internalType": "uint256",
          "name": "tokenId",
          "type": "uint256"
        }
      ],
      "name": "TicketClaimed",
      "type": "event"
    },
    {
      "inputs": [
        {
          "internalType": "uint256",
          "name": "eventId",
          "type": "uint256"
        }
      ],
      "name": "claimTicket",
      "outputs": [],
      "stateMutability": "nonpayable",
      "type": "function"
    },
    {
      "inputs": [],
      "name": "collection",
      "outputs": [
        {
          "internalType": "contract Collection",
          "name": "",
          "type": "address"
        }
      ],
      "stateMutability": "view",
      "type": "function"
    },
    {
      "inputs": [
        {
          "internalType": "string",
          "name": "name",
          "type": "string"
        },
        {
          "internalType": "uint256",
          "name": "date",
          "type": "uint256"
        },
        {
          "internalType": "uint256",
          "name": "ticketSupply",
          "type": "uint256"
        },
        {
          "internalType": "string",
          "name": "description",
          "type": "string"
        },
        {
          "internalType": "string",
          "name": "tokenUri",
          "type": "string"
        },
        {
          "internalType": "string",
          "name": "imageUrl",
          "type": "string"
        }
      ],
      "name": "createEvent",
      "outputs": [],
      "stateMutability": "nonpayable",
      "type": "function"
    },
    {
      "inputs": [
        {
          "internalType": "uint256",
          "name": "",
          "type": "uint256"
        }
      ],
      "name": "events",
      "outputs": [
        {
          "internalType": "string",
          "name": "name",
          "type": "string"
        },
        {
          "internalType": "uint256",
          "name": "date",
          "type": "uint256"
        },
        {
          "internalType": "uint256",
          "name": "ticketSupply",
          "type": "uint256"
        },
        {
          "internalType": "uint256",
          "name": "ticketsMinted",
          "type": "uint256"
        },
        {
          "internalType": "bool",
          "name": "exists",
          "type": "bool"
        },
        {
          "internalType": "string",
          "name": "description",
          "type": "string"
        },
        {
          "internalType": "string",
          "name": "tokenUri",
          "type": "string"
        },
        {
          "internalType": "string",
          "name": "imageUrl",
          "type": "string"
        },
        {
          "internalType": "uint256",
          "name": "tokenIdStartAt",
          "type": "uint256"
        }
      ],
      "stateMutability": "view",
      "type": "function"
    },
    {
      "inputs": [
        {
          "internalType": "uint256",
          "name": "eventId",
          "type": "uint256"
        }
      ],
      "name": "getEvent",
      "outputs": [
        {
          "components": [
            {
              "internalType": "string",
              "name": "name",
              "type": "string"
            },
            {
              "internalType": "uint256",
              "name": "date",
              "type": "uint256"
            },
            {
              "internalType": "uint256",
              "name": "ticketSupply",
              "type": "uint256"
            },
            {
              "internalType": "uint256",
              "name": "ticketsMinted",
              "type": "uint256"
            },
            {
              "internalType": "bool",
              "name": "exists",
              "type": "bool"
            },
            {
              "internalType": "string",
              "name": "description",
              "type": "string"
            },
            {
              "internalType": "string",
              "name": "tokenUri",
              "type": "string"
            },
            {
              "internalType": "string",
              "name": "imageUrl",
              "type": "string"
            },
            {
              "internalType": "uint256",
              "name": "tokenIdStartAt",
              "type": "uint256"
            }
          ],
          "internalType": "struct Minter.Event",
          "name": "",
          "type": "tuple"
        }
      ],
      "stateMutability": "view",
      "type": "function"
    },
    {
      "inputs": [],
      "name": "getTotalEvents",
      "outputs": [
        {
          "internalType": "uint256",
          "name": "",
          "type": "uint256"
        }
      ],
      "stateMutability": "view",
      "type": "function"
    },
    {
      "inputs": [
        {
          "internalType": "address",
          "name": "walletOwner",
          "type": "address"
        }
      ],
      "name": "getUserTickets",
      "outputs": [
        {
          "components": [
            {
              "internalType": "uint256",
              "name": "tokenId",
              "type": "uint256"
            },
            {
              "internalType": "uint256",
              "name": "eventId",
              "type": "uint256"
            }
          ],
          "internalType": "struct Minter.TicketInfo[]",
          "name": "",
          "type": "tuple[]"
        }
      ],
      "stateMutability": "view",
      "type": "function"
    },
    {
      "inputs": [],
      "name": "nextEventId",
      "outputs": [
        {
          "internalType": "uint256",
          "name": "",
          "type": "uint256"
        }
      ],
      "stateMutability": "view",
      "type": "function"
    },
    {
      "inputs": [],
      "name": "owner",
      "outputs": [
        {
          "internalType": "address",
          "name": "",
          "type": "address"
        }
      ],
      "stateMutability": "view",
      "type": "function"
    },
    {
      "inputs": [],
      "name": "renounceOwnership",
      "outputs": [],
      "stateMutability": "nonpayable",
      "type": "function"
    },
    {
      "inputs": [
        {
          "internalType": "address",
          "name": "newOwner",
          "type": "address"
        }
      ],
      "name": "transferOwnership",
      "outputs": [],
      "stateMutability": "nonpayable",
      "type": "function"
    }
  ],
  "transactionHash": "0x0dad0ca67f71b1e1dcb1380c70ac8f0fe4aca74875d116775e73e57413bb7ff7",
  "args": [
    "0xE0232a1fb3d1fb4AEa6221b070567CB74Aa8A586"
  ],
  "numDeployments": 1,
  "solcInputHash": "671e91b2ec3707b7ca44d5f0561c675a",
  "bytecode": "0x608060405234801561001057600080fd5b5060405161163838038061163883398101604081905261002f916100ad565b6100383361005d565b600380546001600160a01b0319166001600160a01b03929092169190911790556100dd565b600080546001600160a01b038381166001600160a01b0319831681178455604051919092169283917f8be0079c531659141344cd1fd0a4f28419497f9722a3daafe3b4186f6b6457e09190a35050565b6000602082840312156100bf57600080fd5b81516001600160a01b03811681146100d657600080fd5b9392505050565b61154c806100ec6000396000f3fe608060405234801561001057600080fd5b50600436106100a95760003560e01c80636d1884e0116100715780636d1884e014610139578063715018a6146101595780637de1e536146101615780638da5cb5b1461018c5780639f9d903a1461019d578063f2fde38b146101a657600080fd5b80630484a22f146100ae5780630b791430146100d75780630fb116d2146100ff57806332d9b272146101145780636160694014610127575b600080fd5b6100c16100bc366004610f58565b6101b9565b6040516100ce9190610f7c565b60405180910390f35b6100ea6100e5366004610fcb565b610492565b6040516100ce9998979695949392919061102a565b61011261010d366004610fcb565b610700565b005b61011261012236600461114f565b61088a565b6002545b6040519081526020016100ce565b61014c610147366004610fcb565b610b18565b6040516100ce919061120e565b610112610e0c565b600354610174906001600160a01b031681565b6040516001600160a01b0390911681526020016100ce565b6000546001600160a01b0316610174565b61012b60025481565b6101126101b4366004610f58565b610e20565b60606000600360009054906101000a90046001600160a01b03166001600160a01b031663459dcbc36040518163ffffffff1660e01b8152600401602060405180830381865afa158015610210573d6000803e3d6000fd5b505050506040513d601f19601f8201168201806040525081019061023491906112cd565b905060008167ffffffffffffffff811115610251576102516110ac565b60405190808252806020026020018201604052801561027a578160200160208202803683370190505b5090506000805b83811015610344576003546040516331a9108f60e11b8152600481018390526001600160a01b03888116921690636352211e90602401602060405180830381865afa1580156102d4573d6000803e3d6000fd5b505050506040513d601f19601f820116820180604052508101906102f891906112e6565b6001600160a01b031603610332578083838151811061031957610319611303565b60209081029190910101528161032e8161132f565b9250505b8061033c8161132f565b915050610281565b5060008167ffffffffffffffff811115610360576103606110ac565b6040519080825280602002602001820160405280156103a557816020015b604080518082019091526000808252602082015281526020019060019003908161037e5790505b5090506000805b838110156104865760008582815181106103c8576103c8611303565b6020026020010151905060005b600254811015610471576000818152600160205260409020600881015483108015906104135750806002015481600801546104109190611348565b83105b1561045e5760405180604001604052808481526020018381525086868151811061043f5761043f611303565b602002602001018190525084806104559061132f565b95505050610471565b50806104698161132f565b9150506103d5565b5050808061047e9061132f565b9150506103ac565b50909695505050505050565b6001602052600090815260409020805481906104ad90611361565b80601f01602080910402602001604051908101604052809291908181526020018280546104d990611361565b80156105265780601f106104fb57610100808354040283529160200191610526565b820191906000526020600020905b81548152906001019060200180831161050957829003601f168201915b50505060018401546002850154600386015460048701546005880180549798949793965091945060ff16929161055b90611361565b80601f016020809104026020016040519081016040528092919081815260200182805461058790611361565b80156105d45780601f106105a9576101008083540402835291602001916105d4565b820191906000526020600020905b8154815290600101906020018083116105b757829003601f168201915b5050505050908060060180546105e990611361565b80601f016020809104026020016040519081016040528092919081815260200182805461061590611361565b80156106625780601f1061063757610100808354040283529160200191610662565b820191906000526020600020905b81548152906001019060200180831161064557829003601f168201915b50505050509080600701805461067790611361565b80601f01602080910402602001604051908101604052809291908181526020018280546106a390611361565b80156106f05780601f106106c5576101008083540402835291602001916106f0565b820191906000526020600020905b8154815290600101906020018083116106d357829003601f168201915b5050505050908060080154905089565b6000818152600160205260409020600481015460ff1661075e5760405162461bcd60e51b8152602060048201526014602482015273115d995b9d08191bd95cc81b9bdd08195e1a5cdd60621b60448201526064015b60405180910390fd5b80600201548160030154106107b55760405162461bcd60e51b815260206004820152601960248201527f4e6f206d6f7265207469636b65747320617661696c61626c65000000000000006044820152606401610755565b6000816003015482600801546107cb9190611348565b60038301805491925060006107df8361132f565b90915550506003546040516323b872dd60e01b8152306004820152336024820152604481018390526001600160a01b03909116906323b872dd90606401600060405180830381600087803b15801561083657600080fd5b505af115801561084a573d6000803e3d6000fd5b50506040518381523392508591507f32f4bbf1cadf836f12eaa6b063a4012d2357ef9bfb64d52c0b752fd32612fe2a9060200160405180910390a3505050565b610892610e99565b600084116108f25760405162461bcd60e51b815260206004820152602760248201527f5469636b657420737570706c79206d7573742062652067726561746572207468604482015266616e207a65726f60c81b6064820152608401610755565b6002546003546040805163459dcbc360e01b815290516000926001600160a01b03169163459dcbc39160048083019260209291908290030181865afa15801561093f573d6000803e3d6000fd5b505050506040513d601f19601f8201168201806040525081019061096391906112cd565b905060405180610120016040528089815260200188815260200187815260200160008152602001600115158152602001868152602001858152602001848152602001828152506001600084815260200190815260200160002060008201518160000190816109d191906113ea565b50602082015160018201556040820151600282015560608201516003820155608082015160048201805460ff191691151591909117905560a08201516005820190610a1c90826113ea565b5060c08201516006820190610a3190826113ea565b5060e08201516007820190610a4690826113ea565b50610100919091015160089091015560028054906000610a658361132f565b90915550506003546040516350049cfb60e11b81526001600160a01b039091169063a00939f690610a9e9030908a9089906004016114aa565b600060405180830381600087803b158015610ab857600080fd5b505af1158015610acc573d6000803e3d6000fd5b50505050817fbb3e1bbacd2f8f590c705be970ffc43e3527b1485e086f2fe4096207ec6dbc5b89898989604051610b0694939291906114da565b60405180910390a25050505050505050565b610b6960405180610120016040528060608152602001600081526020016000815260200160008152602001600015158152602001606081526020016060815260200160608152602001600081525090565b6000828152600160205260409081902081516101208101909252805482908290610b9290611361565b80601f0160208091040260200160405190810160405280929190818152602001828054610bbe90611361565b8015610c0b5780601f10610be057610100808354040283529160200191610c0b565b820191906000526020600020905b815481529060010190602001808311610bee57829003601f168201915b5050509183525050600182015460208201526002820154604082015260038201546060820152600482015460ff161515608082015260058201805460a090920191610c5590611361565b80601f0160208091040260200160405190810160405280929190818152602001828054610c8190611361565b8015610cce5780601f10610ca357610100808354040283529160200191610cce565b820191906000526020600020905b815481529060010190602001808311610cb157829003601f168201915b50505050508152602001600682018054610ce790611361565b80601f0160208091040260200160405190810160405280929190818152602001828054610d1390611361565b8015610d605780601f10610d3557610100808354040283529160200191610d60565b820191906000526020600020905b815481529060010190602001808311610d4357829003601f168201915b50505050508152602001600782018054610d7990611361565b80601f0160208091040260200160405190810160405280929190818152602001828054610da590611361565b8015610df25780601f10610dc757610100808354040283529160200191610df2565b820191906000526020600020905b815481529060010190602001808311610dd557829003601f168201915b505050505081526020016008820154815250509050919050565b610e14610e99565b610e1e6000610ef3565b565b610e28610e99565b6001600160a01b038116610e8d5760405162461bcd60e51b815260206004820152602660248201527f4f776e61626c653a206e6577206f776e657220697320746865207a65726f206160448201526564647265737360d01b6064820152608401610755565b610e9681610ef3565b50565b6000546001600160a01b03163314610e1e5760405162461bcd60e51b815260206004820181905260248201527f4f776e61626c653a2063616c6c6572206973206e6f7420746865206f776e65726044820152606401610755565b600080546001600160a01b038381166001600160a01b0319831681178455604051919092169283917f8be0079c531659141344cd1fd0a4f28419497f9722a3daafe3b4186f6b6457e09190a35050565b6001600160a01b0381168114610e9657600080fd5b600060208284031215610f6a57600080fd5b8135610f7581610f43565b9392505050565b602080825282518282018190526000919060409081850190868401855b82811015610fbe57815180518552860151868501529284019290850190600101610f99565b5091979650505050505050565b600060208284031215610fdd57600080fd5b5035919050565b6000815180845260005b8181101561100a57602081850181015186830182015201610fee565b506000602082860101526020601f19601f83011685010191505092915050565b600061012080835261103e8184018d610fe4565b90508a6020840152896040840152886060840152871515608084015282810360a084015261106c8188610fe4565b905082810360c08401526110808187610fe4565b905082810360e08401526110948186610fe4565b915050826101008301529a9950505050505050505050565b634e487b7160e01b600052604160045260246000fd5b600082601f8301126110d357600080fd5b813567ffffffffffffffff808211156110ee576110ee6110ac565b604051601f8301601f19908116603f01168101908282118183101715611116576111166110ac565b8160405283815286602085880101111561112f57600080fd5b836020870160208301376000602085830101528094505050505092915050565b60008060008060008060c0878903121561116857600080fd5b863567ffffffffffffffff8082111561118057600080fd5b61118c8a838b016110c2565b9750602089013596506040890135955060608901359150808211156111b057600080fd5b6111bc8a838b016110c2565b945060808901359150808211156111d257600080fd5b6111de8a838b016110c2565b935060a08901359150808211156111f457600080fd5b5061120189828a016110c2565b9150509295509295509295565b602081526000825161012080602085015261122d610140850183610fe4565b9150602085015160408501526040850151606085015260608501516080850152608085015161126060a086018215159052565b5060a0850151601f19808685030160c087015261127d8483610fe4565b935060c08701519150808685030160e087015261129a8483610fe4565b935060e087015191506101008187860301818801526112b98584610fe4565b970151959092019490945250929392505050565b6000602082840312156112df57600080fd5b5051919050565b6000602082840312156112f857600080fd5b8151610f7581610f43565b634e487b7160e01b600052603260045260246000fd5b634e487b7160e01b600052601160045260246000fd5b60006001820161134157611341611319565b5060010190565b8082018082111561135b5761135b611319565b92915050565b600181811c9082168061137557607f821691505b60208210810361139557634e487b7160e01b600052602260045260246000fd5b50919050565b601f8211156113e557600081815260208120601f850160051c810160208610156113c25750805b601f850160051c820191505b818110156113e1578281556001016113ce565b5050505b505050565b815167ffffffffffffffff811115611404576114046110ac565b611418816114128454611361565b8461139b565b602080601f83116001811461144d57600084156114355750858301515b600019600386901b1c1916600185901b1785556113e1565b600085815260208120601f198616915b8281101561147c5788860151825594840194600190910190840161145d565b508582101561149a5787850151600019600388901b60f8161c191681555b5050505050600190811b01905550565b60018060a01b03841681528260208201526060604082015260006114d16060830184610fe4565b95945050505050565b6080815260006114ed6080830187610fe4565b856020840152846040840152828103606084015261150b8185610fe4565b97965050505050505056fea26469706673582212205e951663541f52654d985d6a05871572778bacebb105a73e0951ec14fbe0bf6264736f6c63430008110033",
  "devdoc": {
    "kind": "dev",
    "methods": {
      "owner()": {
        "details": "Returns the address of the current owner."
      },
      "renounceOwnership()": {
        "details": "Leaves the contract without owner. It will not be possible to call `onlyOwner` functions anymore. Can only be called by the current owner. NOTE: Renouncing ownership will leave the contract without an owner, thereby removing any functionality that is only available to the owner."
      },
      "transferOwnership(address)": {
        "details": "Transfers ownership of the contract to a new account (`newOwner`). Can only be called by the current owner."
      }
    },
    "version": 1
  },
  "userdoc": {
    "kind": "user",
    "methods": {},
    "version": 1
  },
  "storageLayout": {
    "storage": [
      {
        "astId": 7,
        "contract": "contracts/Minter.sol:Minter",
        "label": "_owner",
        "offset": 0,
        "slot": "0",
        "type": "t_address"
      },
      {
        "astId": 2874,
        "contract": "contracts/Minter.sol:Minter",
        "label": "events",
        "offset": 0,
        "slot": "1",
        "type": "t_mapping(t_uint256,t_struct(Event)2864_storage)"
      },
      {
        "astId": 2876,
        "contract": "contracts/Minter.sol:Minter",
        "label": "nextEventId",
        "offset": 0,
        "slot": "2",
        "type": "t_uint256"
      },
      {
        "astId": 2879,
        "contract": "contracts/Minter.sol:Minter",
        "label": "collection",
        "offset": 0,
        "slot": "3",
        "type": "t_contract(Collection)2837"
      }
    ],
    "types": {
      "t_address": {
        "encoding": "inplace",
        "label": "address",
        "numberOfBytes": "20"
      },
      "t_bool": {
        "encoding": "inplace",
        "label": "bool",
        "numberOfBytes": "1"
      },
      "t_contract(Collection)2837": {
        "encoding": "inplace",
        "label": "contract Collection",
        "numberOfBytes": "20"
      },
      "t_mapping(t_uint256,t_struct(Event)2864_storage)": {
        "encoding": "mapping",
        "key": "t_uint256",
        "label": "mapping(uint256 => struct Minter.Event)",
        "numberOfBytes": "32",
        "value": "t_struct(Event)2864_storage"
      },
      "t_string_storage": {
        "encoding": "bytes",
        "label": "string",
        "numberOfBytes": "32"
      },
      "t_struct(Event)2864_storage": {
        "encoding": "inplace",
        "label": "struct Minter.Event",
        "members": [
          {
            "astId": 2847,
            "contract": "contracts/Minter.sol:Minter",
            "label": "name",
            "offset": 0,
            "slot": "0",
            "type": "t_string_storage"
          },
          {
            "astId": 2849,
            "contract": "contracts/Minter.sol:Minter",
            "label": "date",
            "offset": 0,
            "slot": "1",
            "type": "t_uint256"
          },
          {
            "astId": 2851,
            "contract": "contracts/Minter.sol:Minter",
            "label": "ticketSupply",
            "offset": 0,
            "slot": "2",
            "type": "t_uint256"
          },
          {
            "astId": 2853,
            "contract": "contracts/Minter.sol:Minter",
            "label": "ticketsMinted",
            "offset": 0,
            "slot": "3",
            "type": "t_uint256"
          },
          {
            "astId": 2855,
            "contract": "contracts/Minter.sol:Minter",
            "label": "exists",
            "offset": 0,
            "slot": "4",
            "type": "t_bool"
          },
          {
            "astId": 2857,
            "contract": "contracts/Minter.sol:Minter",
            "label": "description",
            "offset": 0,
            "slot": "5",
            "type": "t_string_storage"
          },
          {
            "astId": 2859,
            "contract": "contracts/Minter.sol:Minter",
            "label": "tokenUri",
            "offset": 0,
            "slot": "6",
            "type": "t_string_storage"
          },
          {
            "astId": 2861,
            "contract": "contracts/Minter.sol:Minter",
            "label": "imageUrl",
            "offset": 0,
            "slot": "7",
            "type": "t_string_storage"
          },
          {
            "astId": 2863,
            "contract": "contracts/Minter.sol:Minter",
            "label": "tokenIdStartAt",
            "offset": 0,
            "slot": "8",
            "type": "t_uint256"
          }
        ],
        "numberOfBytes": "288"
      },
      "t_uint256": {
        "encoding": "inplace",
        "label": "uint256",
        "numberOfBytes": "32"
      }
    }
  }
}